:100000000C944E000C9463060C9494060C94C50654
:100010000C946B000C94D3090C946B000C946B0043
:100020000C946B000C942C090C946B000C949D08A0
:100030000C946B000C946B000C946B000C946B0094
:100040000C946B000C946B000C946B000C946B0084
:100050000C946B002C042E04310434043704370450
:1000600037043704370437043704370437043704B8
:1000700037043704370437043704370437043704A8
:100080003704370437043704370437043704370498
:10009000370437042C042E043104340411241FBE09
:1000A000CFE5D8E0DEBFCDBF10E0A0E6B0E0EEEADD
:1000B000F3E202C005900D92AC37B107D9F720E00A
:1000C000ACE7B0E001C01D92AD3BB207E1F70E9482
:1000D00004040C94D5110C940000CF93DF93CDB79A
:1000E000DEB727970FB6F894DEBF0FBECDBF1982DB
:1000F0001A8281E08B8382E08C831D82CE0101967F
:100100000E94670A0E9444030E94840361E083E422
:100110000E94DD0262E083E40E94DD0264E083E489
:100120000E94DD0268E083E40E94DD0261E084E475
:100130000E94750264E084E40E94750243E061E677
:1001400072E080E00E94B30280E027960FB6F89438
:10015000DEBF0FBECDBFDF91CF910895CF93DF9368
:10016000CDB7DEB740E850E061E084E40E9496023B
:1001700080917C0090917D00A0917E00B0917F00E5
:10018000892B8A2B8B2B31F580918000882311F1EC
:1001900041E064E083E40E94180328EE33E040E08D
:1001A00050E060E070E080E090E00E94E00B809121
:1001B0007C0090917D00A0917E00B0917F0001961F
:1001C000A11DB11D80937C0090937D00A0937E00C3
:1001D000B0937F0080917C0090917D00A0917E0083
:1001E000B0917F00892B8A2B8B2B29F48091800082
:1001F000882309F43CC180918000882369F48091B0
:100200007C0090917D00A0917E00B0917F00892BB1
:100210008A2B8B2B09F445C182E30E94C60341E07F
:1002200061E083E40E94FF0228EB3BE040E050E005
:1002300060E070E080E090E00E94E00B41E061E06F
:1002400083E40E94180380918000882369F48091E0
:100250007C0090917D00A0917E00B0917F00892B61
:100260008A2B8B2B09F41FC10E94B40341E064E088
:1002700083E40E94FF0224EF31E040E050E060E0C0
:1002800070E080E090E00E94E00B41E064E083E4F5
:100290000E94180380918000882369F480917C007B
:1002A00090917D00A0917E00B0917F00892B8A2BD8
:1002B0008B2B09F4FAC041E068E083E40E94FF025E
:1002C00080E50E94E5032CE231E040E050E060E090
:1002D00070E080E090E00E94E00B41E068E083E4A1
:1002E0000E94180380918000882369F480917C002B
:1002F00090917D00A0917E00B0917F00892B8A2B88
:100300008B2B09F4D4C041E064E083E40E94FF0237
:100310000E94B40324EF31E040E050E060E070E080
:1003200080E090E00E94E00B41E064E083E40E9402
:10033000180380918000882369F480917C0090915B
:100340007D00A0917E00B0917F00892B8A2B8B2BA2
:1003500009F4AFC08EE10E94C60341E062E083E48D
:100360000E94FF0220ED37E040E050E060E070E0E6
:1003700080E090E00E94E00B41E062E083E40E94B4
:10038000180380918000882369F480917C0090910B
:100390007D00A0917E00B0917F00892B8A2B8B2B52
:1003A00009F489C00E94B40341E064E083E40E9440
:1003B000FF0224EF31E040E050E060E070E080E0D8
:1003C00090E00E94E00B41E064E083E40E941803A7
:1003D00080918000882369F480917C0090917D0059
:1003E000A0917E00B0917F00892B8A2B8B2B09F482
:1003F00064C041E068E083E40E94FF0280E50E945F
:10040000E5032CE231E040E050E060E070E080E0A5
:1004100090E00E94E00B41E068E083E40E94180352
:1004200080918000882369F480917C0090917D0008
:10043000A0917E00B0917F00892B8A2B8B2B09F431
:100440003EC041E064E083E40E94FF020E94B403E6
:1004500024EF31E040E050E060E070E080E090E0C8
:100460000E94E00B41E064E083E40E941803809165
:100470008000882309F076CE80917C0090917D00E9
:10048000A0917E00B0917F00892B8A2B8B2B09F0E5
:1004900069CE41E064E083E40E94FF020E94B4035D
:1004A00061CE00005FCE00005DCE00005BCE00009C
:1004B00059CE000057CE000055CE000053CE0000AC
:1004C00051CECF93DF93CDB7DEB70E94B403109225
:1004D000800010927C0010927D0010927E0010929D
:1004E0007F000000DF91CF910895CF93DF9300D07C
:1004F00000D01F92CDB7DEB78C836D831A8281E066
:100500008B838D818983CE010196BC018C810E94F1
:100510003F04982F81E0992309F480E00F900F9019
:100520000F900F900F90DF91CF910895CF93DF93AD
:1005300000D000D0CDB7DEB789836A835C834B835C
:100540008B819C81AC016A8189810E943505882359
:1005500011F082E001C080E00F900F900F900F909B
:10056000DF91CF910895CF93DF93CDB7DEB7299771
:100570000FB6F894DEBF0FBECDBF8E8378876F8332
:10058000498781E089838E818A8389858B838F81E6
:1005900098859D838C83CE0101960E9469058823EE
:1005A00011F083E001C080E029960FB6F894DEBF19
:1005B0000FBECDBFDF91CF910895CF93DF9300D0D1
:1005C00000D01F92CDB7DEB78C836D8381E08A8324
:1005D00081E08B838D818983CE010196BC018C8162
:1005E0000E943F04982F81E0992309F480E00F9046
:1005F0000F900F900F900F90DF91CF910895CF93B0
:10060000DF9300D01F92CDB7DEB789836A834B8317
:100610004B816A8189810E94DB04882311F082E08A
:1006200001C080E00F900F900F90DF91CF9108955F
:10063000CF93DF9300D01F92CDB7DEB789836A8353
:100640004B838B81813059F440E06A8189810E941B
:10065000DB04882311F083E011C080E00FC08B81A0
:10066000882359F441E06A8189810E94DB04882350
:1006700011F083E003C080E001C083E00F900F9091
:100680000F90DF91CF910895CF93DF9300D000D0EA
:1006900000D0CDB7DEB781E0898381E08A8382E034
:1006A0008B83CE0101960E94F60681E08D831E8227
:1006B000CE010496BC0181E60E943F0481E08E8356
:1006C00080E48C83CE010496BC0182E60E943F0444
:1006D00080E88C83CE010496BC0182E60E943F0430
:1006E00041E060E482E60E94DB0441E060E882E6EB
:1006F0000E94DB04000026960FB6F894DEBF0FBE02
:10070000CDBFDF91CF910895CF93DF93CDB7DEB703
:1007100041E061E081E60E94DB0440E062E081E6C6
:100720000E94DB0441E064E081E60E94DB0440E0DB
:1007300068E081E60E94DB0441E060E181E60E941E
:10074000DB0440E060E281E60E94DB0441E060E41B
:1007500081E60E94DB0440E060E881E60E94DB0461
:100760000000DF91CF910895CF93DF93CDB7DEB72F
:1007700041E060E482E60E94DB0441E060E882E65A
:100780000E94DB040000DF91CF910895CF93DF93A7
:100790001F92CDB7DEB7898340E060E482E60E9415
:1007A000DB0440E060E882E60E94DB048981882F58
:1007B00090E0A0E0B0E0AC01BD0181E00E94C9077B
:1007C00000000F90DF91CF910895CF93DF931F9298
:1007D000CDB7DEB7898340E060E482E60E94DB04A7
:1007E00041E060E882E60E94DB048981882F90E086
:1007F000A0E0B0E0AC01BD0181E00E94C9070000AB
:100800000F90DF91CF910895CF93DF93CDB7DEB7EF
:100810000E946D000E94AE0080E090E0DF91CF91D9
:100820000895CF93DF9300D0CDB7DEB78A838A8156
:10083000882F90E0092E000CAA0BBB0B41E450E07E
:1008400023E230E0841B950B2817390780F0865D82
:100850009F4FFC010C94301119820BC081E08983F9
:1008600008C082E0898305C083E0898302C089E0F3
:10087000898389810F900F90DF91CF910895CF9355
:10088000DF9300D000D0CDB7DEB78A837C836B8343
:100890008A810E94110489838981893011F481E061
:1008A00083C08B819C81FC0182818823C9F58B8167
:1008B0009C81FC0181818130D1F48981882F90E075
:1008C000880F991F88599F4FFC0180819181FC01FD
:1008D00080818981882F90E0880F991F88599F4FC8
:1008E000FC01808191812FEFFC0120835CC0898114
:1008F000882F90E0880F991F88599F4FFC018081B5
:100900009181FC0180818981882F90E0880F991F57
:1009100088599F4FFC0180819181FC01108243C066
:100920008B819C81FC0181818130F1F48981882F48
:1009300090E0880F991F88599F4FFC018081918119
:100940002981222F30E0220F331F28593F4FF90110
:1009500020813181F90140812B813C81F901208185
:10096000242BFC0120831FC08981882F90E0880FF1
:10097000991F88599F4FFC01808191812981222FE5
:1009800030E0220F331F28593F4FF9012081318178
:10099000F9012081422F2B813C81F9012081209592
:1009A0002423FC01208380E00F900F900F900F9084
:1009B000DF91CF910895CF93DF9300D000D0CDB7D2
:1009C000DEB78A836B834C838A810E9411048983FA
:1009D0008981893011F483E041C08C818130D9F460
:1009E0008981882F90E0880F991F805A9F4FFC01C2
:1009F000808191812981222F30E0220F331F205ADC
:100A00003F4FF90120813181F90130812B81232B66
:100A1000FC01208322C08C818823E9F48981882FFE
:100A200090E0880F991F805A9F4FFC01808191812F
:100A30002981222F30E0220F331F205A3F4FF90126
:100A400020813181F9012081322F2B8120952323B0
:100A5000FC01208302C083E001C080E00F900F9072
:100A60000F900F90DF91CF910895CF93DF9300D037
:100A700000D01F92CDB7DEB78A836B835D834C8332
:100A80008A810E94110489838981893011F485E06B
:100A900018C08981882F90E0880F991F80599F4F37
:100AA000FC0180819181FC0190818B81982381E000
:100AB000992309F480E0282F8C819D81FC012083FB
:100AC00080E00F900F900F900F900F90DF91CF91DB
:100AD0000895CF93DF9300D000D01F92CDB7DEB73B
:100AE0009D838C8378948C819D81FC018181882FEA
:100AF00090E08130910509F44DC08230910509F4F0
:100B000088C0892B09F0CFC085E590E025E530E06D
:100B1000F9012081422F2C813D81F9012281222F70
:100B200030E0220F331F220F331F242BFC012083C0
:100B300084E08983CE010196BC0184E60E943F04D3
:100B40008C819D81FC018381948190939A00809394
:100B500099008C819D81FC018081813051F48BE56D
:100B600090E02BE530E0F90120812064FC01208336
:100B70009CC08C819D81FC018081882309F095C0F7
:100B80008BE590E02BE530E0F90120812F7BFC0123
:100B900020838BC085E590E025E530E0F9014081B8
:100BA0002C813D81F9012281242BFC01208388E0E6
:100BB0008983CE010196BC0184E60E943F048C81AA
:100BC0009D81FC018381948190939C0080939B0084
:100BD0008C819D81FC018081813051F48BE590E016
:100BE0002BE530E0F90120812068FC0120835FC003
:100BF0008C819D81FC018081882309F058C08BE5A0
:100C000090E02BE530E0F90120812F77FC01208373
:100C10004EC084E590E024E530E0F9012081422FC8
:100C20002C813D81F9012281222F30E0002436956C
:100C300027950794369527950794322F202D242B3E
:100C4000FC01208384E08983CE010196BC0182E609
:100C50000E943F048C819D81FC018381948190934B
:100C60009E0080939D008C819D81FC01808181305C
:100C700051F48BE590E02BE530E0F9012081206410
:100C8000FC01208316C08C819D81FC01808188231A
:100C900081F48BE590E02BE530E0F90120812F7B9A
:100CA000FC01208306C081E006C0000003C00000F4
:100CB00001C0000080E00F900F900F900F900F90F8
:100CC000DF91CF9108951F920F9200905F000F92D5
:100CD00011242F933F934F935F936F937F938F9341
:100CE0009F93AF93BF93EF93FF93CF93DF93CDB7D2
:100CF000DEB78091990090919A00FC01099500005F
:100D0000DF91CF91FF91EF91BF91AF919F918F9123
:100D10007F916F915F914F913F912F910F90009232
:100D20005F000F901F9018951F920F9200905F0028
:100D30000F9211242F933F934F935F936F937F9361
:100D40008F939F93AF93BF93EF93FF93CF93DF93D3
:100D5000CDB7DEB780919B0090919C00FC01099576
:100D60000000DF91CF91FF91EF91BF91AF919F91E3
:100D70008F917F916F915F914F913F912F910F9044
:100D800000925F000F901F9018951F920F92009095
:100D90005F000F9211242F933F934F935F936F93B4
:100DA0007F938F939F93AF93BF93EF93FF93CF93D3
:100DB000DF93CDB7DEB780919D0090919E00FC013E
:100DC00009950000DF91CF91FF91EF91BF91AF9115
:100DD0009F918F917F916F915F914F913F912F9153
:100DE0000F9000925F000F901F901895CF93DF93A4
:100DF00000D0CDB7DEB79A83898389819A81FC01BF
:100E00008081882F90E081309105E9F18230910551
:100E100009F480C0892B09F0B3C089819A81FC0153
:100E200080819181A28180939F009093A000A093E4
:100E3000A10088E08093780068E770E082E60E9475
:100E40003F0489819A81FC018181813071F483E5BD
:100E500090E023E530E0F901408129813A81F901F0
:100E60002281242BFC0120838DC083E590E023E5C3
:100E700030E0F901408129813A81F9012181242B57
:100E8000FC0120837FC089819A81FC01808191814E
:100E9000A2818093A2009093A300A093A40080E27B
:100EA0008093780068E770E084E60E943F0480E168
:100EB0008093780068E770E084E60E943F048DE448
:100EC00090E02FEFFC0120838CE490E0FC01108285
:100ED00089819A81FC018181813071F48EE490E0F6
:100EE0002EE430E0F901408129813A81F901228123
:100EF000242BFC01208346C08EE490E02EE430E0F9
:100F0000F901408129813A81F9012181242BFC01D9
:100F1000208338C089819A81FC0180819181A281DE
:100F20008093A5009093A600A093A70080E88093EB
:100F3000780068E770E084E60E943F0489819A8126
:100F4000FC018181813071F485E490E025E430E09A
:100F5000F901408129813A81F9012281242BFC0188
:100F6000208310C085E490E025E430E0F901408161
:100F700029813A81F9012181242BFC01208302C0BF
:100F800081E002C0789480E00F900F90DF91CF91C4
:100F90000895EF92FF920F931F93CF93DF9300D0AA
:100FA00000D01F92CDB7DEB789834A835B836C8301
:100FB0007D838A819B81AC81BD8185369105A105A8
:100FC000B10520F01A821B821C821D826A817B81FE
:100FD0008C819D810E94A60FDC01CB0120E030E0D6
:100FE00048EC52E4BC01CD010E94C90EDC01CB01EA
:100FF00020E030E048EC52E4BC01CD010E94C31077
:10100000DC01CB01BC01CD010E94B20EDC01CB01A1
:10101000BC01CD010E94770FDC01CB018A839B8349
:10102000AC83BD8324E630E040E050E08A819B81C0
:10103000AC81BD8179018A01E81AF90A0A0B1B0B00
:10104000D801C7018A839B83AC83BD838981882FA4
:1010500090E08130910531F18230910509F441C071
:10106000892B09F05DC08A819B81AC81BD81809311
:101070008D0090938E00A0938F00B093900089E52F
:1010800090E029E530E0F90120812160FC01208316
:1010900088E590E028E530E0F90120812E7FFC0111
:1010A00020833EC08A819B81AC81BD818093910069
:1010B00090939200A0939300B093940089E590E000
:1010C00029E530E0F90120812460FC01208388E5D6
:1010D00090E028E530E0F90120812B7FFC0120839E
:1010E0001FC08A819B81AC81BD81809395009093C4
:1010F0009600A0939700B093980089E590E029E5C9
:1011000030E0F90120812064FC01208388E590E033
:1011100028E530E0F90120812F7BFC0120830000CD
:1011200000000F900F900F900F900F90DF91CF91D4
:101130001F910F91FF90EF9008951F920F920090D2
:101140005F000F9211242F933F934F935F936F9300
:101150007F938F939F93AF93BF93EF93FF93CF931F
:10116000DF93CDB7DEB78091810090918200A0918E
:101170008300B09184000196A11DB11D8093810070
:1011800090938200A0938300B093840080918D009F
:1011900090918E00A0918F00B091900084369105BF
:1011A000A105B10531F440E068E082E60E94DB046D
:1011B00035C0209181003091820040918300509190
:1011C000840080918D0090918E00A0918F00B0914D
:1011D0009000281739074A075B07D8F041E068E01C
:1011E00082E60E94DB048091810090918200A091B0
:1011F0008300B091840084369105A105B10571F496
:10120000109281001092820010928300109284004C
:1012100005C040E068E082E60E94DB0488E590E0DB
:1012200028E530E0F90120812E7FFC0120830000B9
:10123000DF91CF91FF91EF91BF91AF919F918F91EE
:101240007F916F915F914F913F912F910F900092FD
:101250005F000F901F9018951F920F9200905F00F3
:101260000F9211242F933F934F935F936F937F932C
:101270008F939F93AF93BF93EF93FF93CF93DF939E
:10128000CDB7DEB78DE490E02FEFFC0120838CE436
:1012900090E0FC0110828091850090918600A091E1
:1012A0008700B09188000196A11DB11D8093850033
:1012B00090938600A0938700B0938800809191005E
:1012C00090919200A0919300B09194008436910582
:1012D000A105B10559F440E060E284E60E94DB0418
:1012E00040E060E184E60E94DB043FC0209185007D
:1012F0003091860040918700509188008091910044
:1013000090919200A0919300B09194002817390712
:101310004A075B0700F141E060E284E60E94DB04DB
:1013200041E060E184E60E94DB04809185009091B9
:101330008600A0918700B091880084369105A105B0
:10134000B10599F4109285001092860010928700E2
:10135000109288000AC040E060E284E60E94DB044C
:1013600040E060E184E60E94DB0488E590E028E547
:1013700030E0F90120812B7FFC0120830000DF9108
:10138000CF91FF91EF91BF91AF919F918F917F91FD
:101390006F915F914F913F912F910F9000925F005D
:1013A0000F901F9018951F920F9200905F000F9260
:1013B00011242F933F934F935F936F937F938F935A
:1013C0009F93AF93BF93EF93FF93CF93DF93CDB7EB
:1013D000DEB784E490E020EFFC0120838091890057
:1013E00090918A00A0918B00B0918C000196A11D74
:1013F000B11D8093890090938A00A0938B00B093D5
:101400008C008091950090919600A0919700B091EA
:10141000980084369105A105B10531F440E060E8FB
:1014200084E60E94DB0435C02091890030918A0057
:1014300040918B0050918C00809195009091960086
:10144000A0919700B0919800281739074A075B07C9
:10145000D8F041E060E884E60E94DB0480918900D6
:1014600090918A00A0918B00B0918C0084369105F8
:10147000A105B10571F41092890010928A001092B2
:101480008B0010928C0005C040E060E884E60E946A
:10149000DB0488E590E028E530E0F90120812F7B2E
:1014A000FC0120830000DF91CF91FF91EF91BF916C
:1014B000AF919F918F917F916F915F914F913F91EC
:1014C0002F910F9000925F000F901F901895CF936F
:1014D000DF93CDB7DEB72B970FB6F894DEBF0FBE04
:1014E000CDBF9B878A878A859B85FC018081882F59
:1014F00090E08130910509F478C08230910509F4BB
:10150000E0C0892B09F04DC18A859B8527E0FC014D
:10151000A8EAB0E001900D922A95E1F783E590E00A
:1015200023E530E0F90140812A853B85F9012181DD
:10153000242BFC0120838A859B85FC0181818836D0
:1015400031F08A859B85FC018181883761F481E0D7
:101550008B8381E08A8388E08983CE010196BC0178
:1015600082E60E943F048A859B85FC01828181304E
:1015700071F483E590E023E530E0F90140812A85AC
:101580003B85F9012381242BFC0120830DC083E5D9
:1015900090E023E530E0F90140812A853B85F9019F
:1015A0002281242BFC0120838A859B85FC01848178
:1015B000882309F4F8C08A859B85FC0184818130E9
:1015C00051F489E590E029E530E0F90120812160BE
:1015D000FC012083E8C089E590E029E530E0F901CD
:1015E00020812260FC012083DEC08A859B8527E064
:1015F000FC01AFEAB0E001900D922A95E1F78A85EF
:101600009B85FC018181882F90E00097F1F0459740
:1016100021F58FE490E02FE430E0F9012081216092
:10162000FC0120838EE490E02EE430E0F90120817B
:101630002860FC0120838FE490E02FE430E0F90182
:1016400020812068FC01208308C08FE490E0FC0129
:1016500010828EE490E0FC0110828A859B85FC015B
:101660008181853161F481E08E8381E08D8380E228
:101670008C83CE010496BC0184E60E943F048A85D7
:101680009B85FC018281813071F48EE490E02EE430
:1016900030E0F90140812A853B85F9012381242B23
:1016A000FC01208383C08EE490E02EE430E0F90159
:1016B00040812A853B85F9012281242BFC0120836E
:1016C00075C08A859B8527E0FC01A6EBB0E0019000
:1016D0000D922A95E1F785E490E025E430E0F901E8
:1016E00040812A853B85F9012181242BFC0120833F
:1016F0008A859B85FC018181883631F08A859B85AE
:10170000FC018181883761F481E0898781E08887E5
:1017100080E88F83CE010796BC0184E60E943F04D7
:101720008A859B85FC018281813071F485E490E09B
:1017300025E430E0F90140812A853B85F9012381C8
:10174000242BFC0120830DC085E490E025E430E0EB
:10175000F90140812A853B85F9012281242BFC0176
:1017600020838A859B85FC0184818823F1F08A850A
:101770009B85FC018481813051F489E590E029E565
:1017800030E0F90120812068FC0120830EC089E54A
:1017900090E029E530E0F90120812064FC012083FC
:1017A00004C081E004C0000001C0000080E02B966E
:1017B0000FB6F894DEBF0FBECDBFDF91CF91089575
:1017C0002F923F924F925F926F927F928F929F9251
:1017D000AF92BF92CF92DF92EF92FF920F931F933F
:1017E000CF93DF93CDB7DEB7E6970FB6F894DEBFA1
:1017F0000FBECDBF2BA33CA34DA35EA36FA378A7C1
:1018000089A79AA78BA18FA79CA198ABEDA1E9AB63
:10181000FEA1FAAB8FA18BAB98A59CABE9A5EDAB74
:10182000FAA5FEAB2FA438A849A85AA86BA87CA893
:101830008DA89EA8222D332D442D552D662D772D54
:10184000882D992D02E00E949511A22EB32EC42E50
:10185000D52EE62EF72E082F192F2A2C3B2C4C2C98
:101860005D2C6E2C7F2C802E912E222D332D442D1D
:10187000552D662D772D882D992D05E00E94951107
:10188000A22EB32EC42ED52EE62EF72E082F192FFA
:101890002A2D3B2D4C2D5D2D6E2D7F2D802F912FD0
:1018A000A22CB32CC42CD52CE62CF72C082D192DEA
:1018B0000E94C311A22EB32EC42ED52EE62EF72ED3
:1018C000082F192F2A2D3B2D4C2D5D2D6E2D7F2D90
:1018D000802F912FAFA4B8A8C9A8DAA8EBA8FCA8BC
:1018E0000DA91EA90E94AE11A22EB32EC42ED52E74
:1018F000E62EF72E082F192F2A2D3B2D4C2D5D2D6E
:101900006E2D7F2D802F912F03E00E949511222EA6
:10191000332E442E552E662E772E882E992EA22CED
:10192000B32CC42CD52CE62CF72C082D192DABA2EA
:10193000BCA2CDA2DEA2EFA2F8A609A71AA78091A9
:10194000AB000E94820E9A87898789859A859C01BF
:1019500040E050E060E070E0CB012B873C874D8792
:101960005E876F87788B898B9A8B19821A821B828C
:101970001C821D821E821F8218862B853C854D8508
:101980005E856F85788989899A8908E00E9495111A
:10199000A22EB32EC42ED52EE62EF72E082F192FE9
:1019A000AB8ABC8ACD8ADE8AEF8AF88E098F1A8FBD
:1019B000ABA0BCA0CDA0DEA0EFA0F8A409A51AA5FD
:1019C0002B883C884D885E886F88788C898C9A8CAF
:1019D0002A2D3B2D4C2D5D2D6E2D7F2D802F912F8F
:1019E000A22CB32CC42CD52CE62CF72C082D192DA9
:1019F0000E94CC1108F051C082E590E09CA78BA713
:101A00002B893C894D895E896F89788D898D9A8D66
:101A1000ABA0BCA0CDA0DEA0EFA0F8A409A51AA59C
:101A20000E94C311222E332E442E552E662E772E61
:101A3000882E992EAB84BC84CD84DE84EF84F88814
:101A400009891A89222D332D442D552D662D772D88
:101A5000882D992D0E943811A22EB32EC42ED52E7A
:101A6000E62EF72E082F192F2A2D3B2D4C2D5D2DFC
:101A70006E2D7F2D802F912F822FEBA5FCA58083CB
:101A8000000088E590E0FC0180818695882F90E039
:101A900081709927892BA9F312C1ABA0BCA0CDA05E
:101AA000DEA0EFA0F8A409A51AA52B883C884D88D4
:101AB0005E886F88788C898C9A8C2A2D3B2D4C2DD2
:101AC0005D2D6E2D7F2D802F912FA22CB32CC42C39
:101AD000D52CE62CF72C082D192D0E94CC1109F0DD
:101AE00008F4DDC02BA13CA14DA15EA16FA178A59A
:101AF00089A59AA50E94E30F6B017C012B893C8983
:101B00004D895E896F89788D898D9A8D0E94E30F4A
:101B1000DC01CB019C01AD01C701B6010E94C90ED9
:101B2000DC01CB01BC01CD010E94B20EDC01CB0176
:101B3000BC01CD010E94400FA22EB32EC42ED52E83
:101B4000E62EF72E082F192FAB8EBC8ECD8EDE8E93
:101B5000EF8EF8A209A31AA382E590E09EA78DA7B5
:101B6000AB84BC84CD84DE84EF84F88809891A892B
:101B70002BA13CA14DA15EA16FA178A589A59AA535
:101B80000E943811A22EB32EC42ED52EE62EF72E8B
:101B9000082F192F2A2C3B2C4C2C5D2C6E2C7F2CC3
:101BA000802E912EAB8CBC8CCD8CDE8CEF8CF8A073
:101BB00009A11AA1222D332D442D552D662D772DE7
:101BC000882D992D0E943811A22EB32EC42ED52E09
:101BD000E62EF72E082F192F2A2D3B2D4C2D5D2D8B
:101BE0006E2D7F2D802F912F822F8195EDA5FEA543
:101BF000808330C0000088E590E0FC0180818695FC
:101C0000882F90E081709927892BA9F388E590E0CF
:101C100028E530E0F90120812E7FFC012083298115
:101C20003A814B815C816D817E818F819885A1E0B5
:101C30000E94B711A22EB32EC42ED52EE62EF72E5B
:101C4000082F192FA982BA82CB82DC82ED82FE8214
:101C50000F831887A980BA80CB80DC80ED80FE805E
:101C60000F8118852B8C3C8C4D8C5E8C6F8C78A0F2
:101C700089A09AA02A2D3B2D4C2D5D2D6E2D7F2DF8
:101C8000802F912FA22CB32CC42CD52CE62CF72C12
:101C9000082D192D0E94CC1108F4ACCF10C082E59C
:101CA00090E0FC011082000088E590E0FC0180815A
:101CB0008695882F90E081709927892BA9F388E574
:101CC00090E028E530E0F90120812E7FFC0120839F
:101CD0000000E6960FB6F894DEBF0FBECDBFDF91D1
:101CE000CF911F910F91FF90EF90DF90CF90BF9019
:101CF000AF909F908F907F906F905F904F903F90AC
:101D00002F900895CF93DF931F92CDB7DEB78983CD
:101D10008981882F90E083309105A9F08430910566
:101D200034F48130910549F0029751F015C08430A8
:101D3000910561F0059769F00FC081E090E00EC059
:101D400088E090E00BC080E490E008C080E091E083
:101D500005C080E094E002C081E090E00F90DF9148
:101D6000CF9108950E94A41090F09F3748F49111EC
:101D700016F40C94BD1060E070E080E89FE30895D5
:101D800026F01B16611D711D811D0C9427100C94EB
:101D900042100E94DD0E0C9471100E946A1058F0DF
:101DA0000E94631040F029F45F3F29F00C94211049
:101DB00051110C94BD100C9450100E94821068F3C5
:101DC0009923B1F3552391F3951B550BBB27AA27F4
:101DD00062177307840738F09F5F5F4F220F331F2E
:101DE000441FAA1FA9F335D00E2E3AF0E0E832D0F6
:101DF00091505040E695001CCAF72BD0FE2F29D0F9
:101E0000660F771F881FBB1F261737074807AB07CA
:101E1000B0E809F0BB0B802DBF01FF2793585F4F3F
:101E20003AF09E3F510578F00C9421100C94BD10AF
:101E30005F3FE4F3983ED4F3869577956795B79521
:101E4000F7959F5FC9F7880F911D9695879597F92C
:101E50000895E1E0660F771F881FBB1F62177307A5
:101E60008407BA0720F0621B730B840BBA0BEE1FBA
:101E700088F7E0950895BEE304D008F490E808954B
:101E8000BFE322273327A9010E948A1060F19F57E0
:101E900048F1B91740F1BFE3B91B9927B8503AF49C
:101EA000660F771F881F991FB395D2F316C0B850DD
:101EB0004AF0232F342F452F562F672F782F88274E
:101EC000B850BAF7B85F49F08695779567955795FA
:101ED000479537952795BA95B9F716F40E94531090
:101EE00088940895889460E070E0CB0108950E9482
:101EF0008A1088F09F5798F0B92F9927B751B0F002
:101F0000E1F0660F771F881F991F1AF0BA95C9F77D
:101F100014C0B13091F00E94BC10B1E008950C944F
:101F2000BC10672F782F8827B85F39F0B93FCCF302
:101F3000869577956795B395D9F73EF490958095FA
:101F4000709561957F4F8F4F9F4F0895E89409C01A
:101F500097FB3EF490958095709561957F4F8F4FDC
:101F60009F4F9923A9F0F92F96E9BB279395F695F2
:101F7000879577956795B795F111F8CFFAF4BB0F70
:101F800011F460FF1BC06F5F7F4F8F4F9F4F16C0D4
:101F9000882311F096E911C0772321F09EE8872F5E
:101FA000762F05C0662371F096E8862F70E060E01A
:101FB0002AF09A95660F771F881FDAF7880F969593
:101FC000879597F90895E894F92F96EBFF2381F010
:101FD000121613061406440B9395F695879577957C
:101FE000679557954040FF23B9F71BC0992708957F
:101FF000882351F49850D2F7872B762F652F542FD2
:10200000432F322F20E0B1F3121613061406440BAF
:1020100088233AF09A95440F551F661F771F881F33
:10202000CAF755234AF4440F551F11F460FF04C04A
:102030006F5F7F4F8F4F9F4F880F9695879597F9CA
:10204000089597F99F6780E870E060E0089588231D
:1020500071F4772321F09850872B762F07C06623E1
:1020600011F499270DC09051862B70E060E02AF0A2
:102070009A95660F771F881FDAF7880F96958795D0
:1020800097F908959F3F31F0915020F48795779507
:102090006795B795880F911D9695879597F908953F
:1020A0009FEF80EC08959095809570956095509580
:1020B0004095309521953F4F4F4F5F4F6F4F7F4F6A
:1020C0008F4F9F4F089500240A941616170618067E
:1020D0000906089500240A9412161306140605062C
:1020E0000895092E0394000C11F4882352F0BB0FBD
:1020F00040F4BF2B11F460FF04C06F5F7F4F8F4F20
:102100009F4F089557FD9058440F551F59F05F3F5A
:1021100071F04795880F97FB991F61F09F3F79F009
:1021200087950895121613061406551FF2CF46958B
:10213000F1DF08C0161617061806991FF1CF86950D
:1021400071056105089408950E948A10A0F0BEE709
:10215000B91788F4BB279F3860F41616B11D672F96
:10216000782F8827985FF7CF869577956795B11D6B
:1021700093959639C8F30895E894BB276627772787
:10218000CB0197F908950E94D6100C9471100E940B
:10219000631038F00E946A1020F0952311F00C941F
:1021A00021100C94501011240C94BD100E94821028
:1021B00070F3959FC1F3950F50E0551F629FF0019A
:1021C000729FBB27F00DB11D639FAA27F00DB11DB3
:1021D000AA1F649F6627B00DA11D661F829F22273C
:1021E000B00DA11D621F739FB00DA11D621F839FC3
:1021F000A00D611D221F749F3327A00D611D231F99
:10220000849F600D211D822F762F6A2F11249F57E6
:1022100050409AF0F1F088234AF0EE0FFF1FBB1FE9
:10222000661F771F881F91505040A9F79E3F5105A8
:1022300080F00C9421100C94BD105F3FE4F3983EA5
:10224000D4F3869577956795B795F795E7959F5F52
:10225000C1F7FE2B880F911D9695879597F90895E4
:10226000EE0FFF1F0590F491E02D0994689401C0D2
:10227000E8948F929F92CF93DF930E944411DF9155
:10228000CF919F908F90089588249924F401E401C0
:10229000B0E49F93AA279A158B049C04ED05FE05D4
:1022A000CF05D007A10798F4AD2FDC2FCF2FFE2F3D
:1022B000E92D982C892E982F872F762F652F542F54
:1022C000432F322F2227B85031F7BF9127C01B2E42
:1022D000BF91BB27220F331F441F551F661F771F57
:1022E000881F991F881C991CEE1FFF1FCC1FDD1F24
:1022F000AA1FBB1F8A149B04EC05FD05CE05DF0554
:10230000A007B10748F08A189B08EC09FD09CE091F
:10231000DF09A00BB10B21601A94E1F62EF49401B1
:10232000AF01BE01CD01000C08950F93083090F06D
:10233000982F872F762F652F542F432F322F222748
:102340000850F4CF220F331F441F551F661F771FFD
:10235000881F991F0A95B2F70F9108952A0D3B1D0A
:102360004C1D5D1D6E1D7F1D801F911F0895002453
:10237000A7FD00942A0F301D401D501D601D701DCB
:10238000801D901D08952A193B094C095D096E09AD
:102390007F09800B910B08952A153B054C055D05BF
:0E23A0006E057F05800791070895F894FFCF22
:1023AE003B003800350032003A003700340031006F
:0C23BE003900360033003000000101003F
:00000001FF
